:020000040800F2
:100000000028002095130008950F00089B0F00089A
:10001000A10F0008A70F0008AD0F000800000000A6
:10002000000000000000000000000000B30F000806
:10003000BF0F000800000000CB0F0008D70F00081A
:10004000DD130008DD130008DD130008DD130008D0
:10005000DD130008DD130008DD130008DD130008C0
:10006000DD130008DD130008DD130008DD130008B0
:10007000DD130008DD130008DD130008DD130008A0
:10008000DD130008DD130008DD130008DD13000890
:10009000DD130008DD130008DD130008DD13000880
:1000A000DD130008DD130008DD130008DD13000870
:1000B000E50F0008DD13000800000000DD13000854
:1000C000DD1300080000000000000000DD13000840
:1000D00000000000DD130008DD1300080000000030
:1000E000DD130008DD130008DD1300080000000028
:1000F0000000000000000000000000000000000000
:0C01000000000000000000005FF808F1A3
:10010C0010B5054C237833B9044B13B10448AFF345
:10011C0000800123237010BD280000200000000087
:10012C000C2A000808B5034B1BB103490348AFF375
:10013C00008008BD000000002C0000200C2A0008E4
:10014C0090B583B000AF0023FB7146E0FA79FB79E0
:10015C002649895C264AD154FB79264A32F8133059
:10016C00FC791946244801F01FFC03461A461F4B24
:10017C001A55FB791E4AD25CFB791C49CB5C9A421E
:10018C0028D1FA79FB791A49895C1C4AD154FB793C
:10019C001A4AD35C002B14D1FB79194A32F813306C
:1001AC00632B09D8FB79164A32F81320013291B22D
:1001BC00134A22F813100DE0FB79124A0121D15495
:1001CC0008E0FB790E4A002122F81310FB790D4A46
:1001DC000021D154FB790133FB71FB79022BB5D98A
:1001EC0000BF00BF0C37BD4690BD00BF58000020BB
:1001FC0054000020000000200008014050000020A6
:10020C00600000205C00002080B483B000AF034687
:10021C00FB71FB79022B01D9002307E0FB79064A1D
:10022C00D35C002B0CBF01230023DBB218460C3728
:10023C00BD4680BC704700BF5000002080B483B026
:10024C0000AF0346FB71FB79022B01D9FF2307E0BA
:10025C00FB79064AD35C012B0CBF01230023DBB2D4
:10026C0018460C37BD4680BC704700BF5C000020B0
:10027C0080B582B000AF786039607B681B78022B48
:10028C002AD0022B34DC002B02D0012B0CD02FE017
:10029C003B68DBB21846FFF7B7FF0346002B2BD0A9
:1002AC007B6801221A7027E03B68DBB21846FFF727
:1002BC00ABFF0346002B03D17B6800221A701DE0B4
:1002CC003B68DBB21846FFF7B9FF0346002B15D08D
:1002DC007B6802221A7011E03B68DBB21846FFF70C
:1002EC0093FF0346002B0BD17B6800221A7007E0AA
:1002FC007B6800221A7004E000BF02E000BF00E03F
:10030C0000BF00BF0837BD4680BD000080B582B07D
:10031C0000AF00237B6009E07B68AC4A134479682A
:10032C001846FFF7A5FF7B6801337B607B68022BC7
:10033C00F2DDA74B1B78032B00F2ED8001A252F8E3
:10034C0023F000BF61030008C30300085304000836
:10035C00B90400089F4B1A689E4B59689D4B9B68CB
:10036C000B449A420BD0012202219B4801F033FB33
:10037C00984B5A68974B9B681344964A136000F04D
:10038C00DBFE964B5B68012B02D1322000F05CFE49
:10039C00934B01221A60322000F056FE8D4B1B68E5
:1003AC00904A13608B4B5B688E4A5360894B9B68F9
:1003BC008C4A9360AFE08A4B1B68012B0BD1002257
:1003CC004FF48061884801F006FB00224FF4006175
:1003DC00854801F000FB814B5B68012B0CD14FF47D
:1003EC008061814801F00FFB4FF400617E4801F001
:1003FC000AFB322000F028FE00224FF480517A488C
:10040C0001F0E9FA00224FF40051774801F0E3FAC9
:10041C0000224FF48041744801F0DDFA00224FF4C1
:10042C000041714801F0D7FA002202216A4801F01C
:10043C00D2FA6C4B1B680221184600F0E3FC684BA7
:10044C0002221A6067E000224FF48061664801F0D6
:10045C00C2FA00224FF40061634801F0BCFA5F4B12
:10046C005B68012B0CD14FF480515F4801F0CBFA43
:10047C004FF400515C4801F0C6FA322000F0E4FD64
:10048C0000224FF48041584801F0A5FA00224FF4A5
:10049C000041554801F09FFA524B5B680321184606
:1004AC0000F0B0FC4E4B03221A6034E000224FF4F3
:1004BC0080614D4801F08FFA00224FF400614A48E8
:1004CC0001F089FA00224FF48051474801F083FA79
:1004DC0000224FF40051444801F07DFA3F4B5B6819
:1004EC00012B0CD14FF480413F4801F08CFA4FF4B2
:1004FC0000413D4801F087FA322000F0A5FD00F0E4
:10050C0005FE384B9B680421184600F07BFC344BED
:10051C0004221A6000BF2D4B1B78012B03D02B4BF0
:10052C001B78022B2CD1294B1B78022B14D12B4B73
:10053C001B69012B24D1264B1B780133DAB2244BD7
:10054C001A70234B1B78042B02D1214B00221A70FA
:10055C000A2000F065FD13E0204B1B69012B0FD125
:10056C001B4B1B780133DAB2194B1A70184B1B78E2
:10057C00042B02D1164B00221A700A2000F050FDF9
:10058C00124B5B78012B04D0104B5B78022B40F0A4
:10059C008C800E4B5B78022B4CD1104B1B69012BC2
:1005AC0040F083800A4B1B78012B05D10D4B1B6847
:1005BC0001330C4A136022E0054B1B78022B15D13A
:1005CC00084B5B680133074A536018E06800002051
:1005DC006B0000201000002000080140700000207B
:1005EC000800002044000020000C0140464B1B7802
:1005FC00032B04D1454B9B680133444A9360434B16
:10060C001B68642B03D1414B00221A600EE03F4B58
:10061C005B68642B03D13D4B00225A6006E03B4BD8
:10062C009B68642B02D1394B00229A600A2000F09F
:10063C00F7FC3AE0364B1B69012B36D1324B1B7859
:10064C00012B05D1314B1B680133304A136012E08A
:10065C002D4B1B78022B05D12C4B5B6801332B4A9D
:10066C00536008E0284B1B78032B04D1274B9B6865
:10067C000133264A9360254B1B68642B03D1234B13
:10068C0000221A600EE0214B5B68642B03D11F4BD8
:10069C0000225A6006E01D4B9B68642B02D11B4B59
:1006AC0000229A600A2000F0BBFC1A4B9B78012BAD
:1006BC0003D0184B9B78022B20D1154B1B69012BB7
:1006CC001CD1114B1B78012B04D1104B1B68124A07
:1006DC00136010E00C4B1B78022B04D10B4B5B68A6
:1006EC000D4A536007E0084B1B78032B03D1074BD3
:1006FC009B68094A9360052000F092FC00F0C6FB51
:10070C0000BF0837BD4680BD6B00002044000020B0
:10071C0070000020680000201000002080B500AFA1
:10072C0000F058FE00F01AF800F0A0F800F052F8B3
:10073C00094801F0ADFD00F0E9FC642000F05CFC20
:10074C00322000F081FC0A2000F06AFC052000F049
:10075C008FFCFFF7DBFDFCE7B000002080B590B00C
:10076C0000AF07F1180328220021184602F040F9C7
:10077C003B1D00221A605A609A60DA601A610223EB
:10078C00BB610123BB621023FB6200237B6307F177
:10079C001803184601F050F90346002B01D000F065
:1007AC00D3F80F237B600023BB600023FB60002386
:1007BC003B6100237B613B1D0021184601F0BCFB13
:1007CC000346002B01D000F0BFF800BF4037BD46F8
:1007DC0080BD000080B586B000AF07F10803002291
:1007EC001A605A609A60DA603B4600221A605A60BE
:1007FC001D4B4FF080421A601B4B41F63F725A6002
:10080C00194B00229A60184B0922DA60164B002211
:10081C001A61154B00229A61134801F0E9FC03465A
:10082C00002B01D000F090F84FF48053BB6007F11F
:10083C00080319460C4801F067FE0346002B01D053
:10084C0000F082F800233B6000237B603B46194696
:10085C00054802F03FF80346002B01D000F074F875
:10086C0000BF1837BD4680BDB000002080B586B0F3
:10087C0000AF07F1080300221A605A609A60DA6030
:10088C00284B9B69274A43F004039361254B9B69D2
:10089C0003F004037B607B68224B9B69214A43F085
:1008AC00080393611F4B9B6903F008033B603B6893
:1008BC0000224FF202011C4801F08DF800224FF685
:1008CC007F411A4801F087F84FF20203BB60012305
:1008DC00FB6000233B6102237B6107F1080319468F
:1008EC00114800F0E7FE1C23BB600023FB600123D2
:1008FC003B6107F1080319460B4800F0DBFE4FF68D
:10090C007F43BB600123FB6000233B6102237B61BF
:10091C0007F108031946054800F0CCFE00BF183754
:10092C00BD4680BD0010024000080140000C014093
:10093C0080B582B000AF7860FFF702FC00F0ACFB32
:10094C0000BF0837BD4680BD80B400AF72B600BF93
:10095C00FEE7000080B582B000AF78600122012173
:10096C00BF4801F038F801220221BD4801F033F8EC
:10097C0001220421BA4801F02EF801220821B848BE
:10098C0001F029F801221021B54801F024F80122C8
:10099C002021B34801F01FF801224021B04801F09A
:1009AC001AF87B68092B00F2818101A252F823F01E
:1009BC00E50900082D0A0008750A0008BD0A0008A0
:1009CC00050B00084D0B0008950B0008DD0B00080B
:1009DC00250C0008710C000800220121A04800F031
:1009EC00FAFF002202219E4800F0F5FF00220421AC
:1009FC009B4800F0F0FF00220821994800F0EBFF23
:100A0C0000221021964800F0E6FF00222021944895
:100A1C0000F0E1FF01224021914800F0DCFF46E1AB
:100A2C00012201218E4800F0D6FF002202218C48C1
:100A3C0000F0D1FF00220421894800F0CCFF0122F4
:100A4C000821874800F0C7FF01221021844800F0DC
:100A5C00C2FF01222021824800F0BDFF012240216B
:100A6C007F4800F0B8FF22E1002201217C4800F011
:100A7C00B2FF002202217A4800F0ADFF01220421CE
:100A8C00774800F0A8FF00224021754800F0A3FF32
:100A9C0000221021724800F09EFF002208217048AD
:100AAC0000F099FF012220216D4800F094FFFEE038
:100ABC00002201216A4800F08EFF002202216848C2
:100ACC0000F089FF00224021654800F084FF0022DD
:100ADC000421634800F07FFF00220821604800F0E9
:100AEC007AFF012210215E4800F075FF01222021BF
:100AFC005B4800F070FFDAE000222021584800F03B
:100B0C006AFF00220221564800F065FF00224021B6
:100B1C00534800F060FF00220421514800F05BFFB5
:100B2C00012201214E4800F056FF012208214C48B9
:100B3C0000F051FF01221021494800F04CFFB6E0B3
:100B4C0000220121464800F046FF002220214448A3
:100B5C0000F041FF00224021414800F03CFF002200
:100B6C0004213F4800F037FF002208213C4800F0E8
:100B7C0032FF012202213A4800F02DFF0122102100
:100B8C00374800F028FF92E000220121344800F0A1
:100B9C0022FF00222021324800F01DFF00224021BC
:100BAC002F4800F018FF002210212D4800F013FFF1
:100BBC00002208212A4800F00EFF002204212848B8
:100BCC0000F009FF01220221254800F004FF6EE02D
:100BDC0000220121224800F0FEFE002202212048C2
:100BEC0000F0F9FE002204211D4800F0F4FE012261
:100BFC0008211B4800F0EFFE01221021184800F0DC
:100C0C00EAFE01222021164800F0E5FE01224021D7
:100C1C00134800F0E0FE4AE000220121104800F0E9
:100C2C00DAFE002202210E4800F0D5FE002204213B
:100C3C000B4800F0D0FE00220821094800F0CBFE42
:100C4C0000221021064800F0C6FE00222021044894
:100C5C0000F0C1FE00224021014800F0BCFE26E05D
:100C6C00000C014000220121134800F0B4FE0022C8
:100C7C000221114800F0AFFE002204210E4800F0C2
:100C8C00AAFE002208210C4800F0A5FE002220211B
:100C9C00094800F0A0FE00224021074800F09BFE0E
:100CAC0001221021044800F096FE00E000BF00BFB6
:100CBC000837BD4680BD00BF000C014080B582B036
:100CCC0000AF7860396000224FF480514C4800F03E
:100CDC0082FE00224FF40051494800F07CFE0022B5
:100CEC004FF48041464800F076FE00224FF400415C
:100CFC00434800F070FE7B68032B7BD801A252F8AE
:100D0C0023F000BF210D0008590D0008910D0008BB
:100D1C00C90D000801224FF48051394800F05BFEE8
:100D2C0000224FF40051364800F055FE00224FF4DB
:100D3C008041334800F04FFE00224FF40041304810
:100D4C0000F049FE3868FFF705FE54E000224FF42E
:100D5C0080512B4800F03FFE01224FF400512848EF
:100D6C0000F039FE00224FF48041254800F033FE9C
:100D7C0000224FF40041224800F02DFE3868FFF7A6
:100D8C00E9FD38E000224FF480511D4800F023FEAD
:100D9C0000224FF400511A4800F01DFE01224FF4BE
:100DAC008041174800F017FE00224FF40041144810
:100DBC0000F011FE3868FFF7CDFD1CE000224FF467
:100DCC0080510F4800F007FE00224FF400510C48F0
:100DDC0000F001FE00224FF48041094800F0FBFDB9
:100DEC0001224FF40041064800F0F5FD3868FFF78A
:100DFC00B1FD00E000BF00BF0837BD4680BD00BF9D
:100E0C000008014080B487B000AF786039607B681F
:100E1C001C4A82FB03129210DB17D31A7B617A688F
:100E2C00184B83FB02139910D317C91A0B469B005E
:100E3C000B445B00D31A3B613B68124A82FB0312E2
:100E4C009210DB17D31AFB603A680E4B83FB02132C
:100E5C009910D317C91A0B469B000B445B00D31A8D
:100E6C00BB60094A7B691360074A3B695360064AB9
:100E7C00FB689360044ABB68D36000BF1C37BD4657
:100E8C0080BC7047676666669800002080B500AF2E
:100E9C000F4B1A680E4B1B680E4951F8233019463C
:100EAC001046FFF70BFF0C4B9B68012B0ED1084B28
:100EBC001B680133064A1360054B1B68042B02D1D7
:100ECC00034B00221A60052000F0D2F800BF80BD51
:100EDC006C000020980000207000002080B485B0C9
:100EEC0000AF154B9B69144A43F001039361124BFD
:100EFC009B6903F00103BB60BB680F4BDB690E4AB7
:100F0C0043F08053D3610C4BDB6903F080537B605F
:100F1C007B680A4B5B68FB60FB6823F0E063FB605B
:100F2C00FB6843F08063FB60044AFB68536000BFBE
:100F3C001437BD4680BC70470010024000000140D1
:100F4C0080B584B000AF78607B681B68B3F1804FCC
:100F5C0013D10C4BDB690B4A43F00103D361094BF2
:100F6C00DB6903F00103FB60FB68002200211C20FD
:100F7C0000F069FB1C2000F082FB00BF1037BD465F
:100F8C0080BD00BF0010024080B400AFFEE780B40B
:100F9C0000AFFEE780B400AFFEE780B400AFFEE721
:100FAC0080B400AFFEE780B400AF00BFBD4680BC8C
:100FBC00704780B400AF00BFBD4680BC704780B4A2
:100FCC0000AF00BFBD4680BC704780B500AF00F0DD
:100FDC0047FA00BF80BD000080B500AF024801F0A9
:100FEC00A3F900BF80BD00BFB000002080B400AFEB
:100FFC0000BFBD4680BC704780B483B000AF786042
:10100C00054A7B681360054B00221A6000BF0C3741
:10101C00BD4680BC704700BF8400002070000020DB
:10102C0080B483B000AF7860054A7B681361054BD0
:10103C0000221A6100BF0C37BD4680BC704700BF50
:10104C00840000207000002080B483B000AF786072
:10105C00054A7B685360054B00225A6000BF0C3771
:10106C00BD4680BC704700BF84000020700000208B
:10107C0080B483B000AF7860054A7B689360054B01
:10108C0000229A6000BF0C37BD4680BC704700BF81
:10109C00840000207000002080B400AF194B1B6846
:1010AC00013B184A1360174B5B68013B154A5360B0
:1010BC00144B9B68013B134A9360124B1B69013B19
:1010CC00104A13610F4B1B68002B02D10E4B0122EF
:1010DC001A600C4B5B68002B02D10B4B01225A603F
:1010EC00084B9B68002B02D1074B01229A60054BE1
:1010FC001B69002B02D1044B01221A6100BFBD46B3
:10110C0080BC7047840000207000002080B500AFC8
:10111C00064B00221A60064B00221A60054B012276
:10112C001A606420FFF768FF00BF80BDA800002094
:10113C00AC0000201C00002080B500AF8D4B1B685C
:10114C00032B00F2038101A252F823F0691100086D
:10115C00E511000861120008DD12000801224FF4AD
:10116C008061854800F037FC00224FF40061824812
:10117C0000F031FC00224FF480517F4800F02BFC32
:10118C0000224FF400517C4800F025FC00224FF463
:10119C008041794800F01FFC01224FF40041764851
:1011AC0000F019FC754B9A68754B1B689A4205D177
:1011BC00704B01221A60724B00221A606F4B1A6836
:1011CC006F4B1B68D01A6D4B9A686D4B1B68D31A0A
:1011DC001946FFF717FEBDE001224FF48061664807
:1011EC0000F0F9FB00224FF40061634800F0F3FBC0
:1011FC0000224FF48051604800F0EDFB01224FF4C7
:10120C0000515D4800F0E7FB00224FF480415A4842
:10121C0000F0E1FB00224FF40041574800F0DBFBEB
:10122C00564B5A68564B1B689A4205D1514B0222B9
:10123C001A60534B00221A60504B5A68504B1B6873
:10124C00D01A4E4B5A684E4B1B68D31A1946FFF7EF
:10125C00D9FD7FE000224FF48061474800F0BBFBD2
:10126C0001224FF40061444800F0B5FB00224FF41A
:10127C008051414800F0AFFB00224FF400513E4832
:10128C0000F0A9FB01224FF480413B4800F0A3FB86
:10129C0000224FF40041384800F09DFB374B9A6810
:1012AC00374B1B689A4205D1324B03221A60344BE0
:1012BC0000221A60314B9A68314B1B68D01A2F4BA5
:1012CC001A682F4B1B68D31A1946FFF79BFD41E098
:1012DC0000224FF48061284800F07DFB01224FF47E
:1012EC000061254800F077FB01224FF48051224821
:1012FC0000F071FB00224FF400511F4800F06BFB13
:10130C0000224FF480411C4800F065FB00224FF492
:10131C000041194800F05FFB184B5A68184B1B68CA
:10132C009A4205D1134B00221A60154B00221A6009
:10133C00124B5A68124B1B68D01A104B5A68104B40
:10134C001B68D31A1946FFF75DFD03E0094B002219
:10135C001A6000BF0B4B1B68012B08D1084B1B6894
:10136C000133074A13606420FFF746FE00BF00BF3D
:10137C0080BD00BFA8000020000C01401000002020
:10138C00AC00002070000020FFF730FE0B480C4929
:10139C000C4A002302E0D458C4500433C4188C42C5
:1013AC00F9D3094A094C002301E013600432A2422C
:1013BC00FBD301F0F9FAFFF7B1F9704700000020F8
:1013CC0028000020502A000828000020FC000020E3
:1013DC00FEE7000080B500AF084B1B68074A43F0DE
:1013EC0010031360032000F023F90F2000F008F81D
:1013FC00FFF774FD0023184680BD00BF002002409B
:10140C0080B582B000AF7860124B1A68124B1B7813
:10141C0019464FF47A73B3FBF1F3B2FBF3F31846AE
:10142C0000F03BF90346002B01D001230EE07B6852
:10143C000F2B0AD8002279684FF0FF3000F003F927
:10144C00064A7B681360002300E001231846083726
:10145C00BD4680BD0C000020240000202000002090
:10146C0080B400AF054B1B781A46054B1B68134420
:10147C00034A136000BFBD4680BC704724000020A7
:10148C00F800002080B400AF024B1B681846BD4624
:10149C0080BC7047F800002080B485B000AF786045
:1014AC007B6803F00703FB600C4BDB68BB60BA681E
:1014BC004FF6FF031340BB60FB681A02BB68134373
:1014CC0043F0BF6343F40033BB60044ABB68D36092
:1014DC0000BF1437BD4680BC704700BF00ED00E074
:1014EC0080B400AF044BDB681B0A03F007031846FB
:1014FC00BD4680BC704700BF00ED00E080B483B0F7
:10150C0000AF0346FB7197F90730002B0BDBFB791F
:10151C0003F01F02064997F907305B09012000FA16
:10152C0002F241F8232000BF0C37BD4680BC704747
:10153C0000E100E080B483B000AF03463960FB717A
:10154C0097F90730002B0ADB3B68DAB20C4997F9A4
:10155C0007301201D2B20B4483F800230AE03B6837
:10156C00DAB20849FB7903F00F03043B1201D2B243
:10157C000B441A7600BF0C37BD4680BC704700BFC9
:10158C0000E100E000ED00E080B489B000AFF8604D
:10159C00B9607A60FB6803F00703FB61FB69C3F178
:1015AC000703042B28BF0423BB61FB690433062B00
:1015BC0002D9FB69033B00E000237B614FF0FF3253
:1015CC00BB6902FA03F3DA43BB681A407B699A40A1
:1015DC004FF0FF317B6901FA03F3D9437B680B4071
:1015EC00134318462437BD4680BC704780B582B083
:1015FC0000AF78607B68013BB3F1807F01D301239E
:10160C000FE00A4A7B68013B53600F214FF0FF301B
:10161C00FFF790FF054B00229A60044B07221A60DB
:10162C00002318460837BD4680BD00BF10E000E01F
:10163C0080B582B000AF78607868FFF72DFF00BFEF
:10164C000837BD4680BD80B586B000AF0346B96093
:10165C007A60FB7300237B61FFF742FF78617A6845
:10166C00B9687869FFF790FF024697F90F30114679
:10167C001846FFF75FFF00BF1837BD4680BD80B529
:10168C0082B000AF0346FB7197F907301846FFF79D
:10169C0035FF00BF0837BD4680BD80B582B000AFB6
:1016AC0078607868FFF7A2FF034618460837BD46F6
:1016BC0080BD000080B48BB000AF7860396000232F
:1016CC007B6200233B6248E101227B6A02FA03F34E
:1016DC00FB613B681B68FA691340BB61BA69FB6923
:1016EC009A4240F037813B685B68A34A93425ED0D4
:1016FC00A14A934275D8A14A934258D09F4A93422B
:10170C006FD89F4A934252D09D4A934269D89D4AC2
:10171C0093424CD09B4A934263D89B4A934246D007
:10172C00994A93425DD8122B2AD8122B59D801A270
:10173C0052F823F0BB17000895170008A7170008EC
:10174C00E9170008EF170008EF170008EF1700085B
:10175C00EF170008EF170008EF170008EF17000845
:10176C00EF170008EF170008EF170008EF17000835
:10177C00EF170008EF1700089D170008B1170008B5
:10178C00824A934213D02CE03B68DB683B6229E031
:10179C003B68DB6804333B6224E03B68DB6808335E
:1017AC003B621FE03B68DB680C333B621AE03B6832
:1017BC009B68002B02D104233B6213E03B689B68BF
:1017CC00012B05D108233B627B68FA691A6109E099
:1017DC0008233B627B68FA695A6103E000233B6291
:1017EC0000E000BFBB69FF2B01D87B6801E07B6880
:1017FC0004337B61BB69FF2B02D87B6A9B0002E040
:10180C007B6A083B9B003B617B691A680F213B6933
:10181C0001FA03F3DB431A40396A3B6901FA03F31B
:10182C001A437B691A603B685B6803F08053002B9A
:10183C0000F09080564B9B69554A43F0010393612D
:10184C00534B9B6903F00103BB60BB68514A7B6A35
:10185C009B08023352F82330FB607B6A03F00303CE
:10186C009B000F2202FA03F3DB43FA681340FB6080
:10187C007B68494A93420DD07B68484A934207D013
:10188C007B68474A934201D1022304E0032302E020
:10189C00012300E000237A6A02F0030292009340D5
:1018AC00FA681343FB603B497B6A9B080233FA6876
:1018BC0041F823203B685B6803F48013002B06D0AF
:1018CC00384B9A683749BB6913438B6006E0354B3C
:1018DC009A68BB69DB43334913408B603B685B6898
:1018EC0003F40013002B06D02E4BDA682D49BB698C
:1018FC001343CB6006E02B4BDA68BB69DB43294909
:10190C001340CB603B685B6803F40033002B06D0BC
:10191C00244B5A682349BB6913434B6006E0214BA7
:10192C005A68BB69DB431F4913404B603B685B68DB
:10193C0003F48033002B06D01A4B1A681949BB6983
:10194C0013430B6006E0174B1A68BB69DB43154960
:10195C0013400B607B6A01337B623B681A687B6ABD
:10196C0022FA03F3002B7FF4AFAE00BF00BF2C377D
:10197C00BD4680BC704700BF000032100000311023
:10198C0000002210000021100000121000001110A5
:10199C00001002400000014000080140000C014012
:1019AC00001001400004014080B485B000AF7860A5
:1019BC000B467B807B689A687B881340002B02D097
:1019CC000123FB7301E00023FB73FB7B18461437E8
:1019DC00BD4680BC704780B483B000AF78600B46C6
:1019EC007B8013467B707B78002B03D07A887B68D6
:1019FC001A6103E07B881A047B681A6100BF0C37FC
:101A0C00BD4680BC704780B485B000AF78600B4693
:101A1C007B807B68DB68FB607A88FB6813401A0468
:101A2C00FB68D9437B880B401A437B681A6100BF63
:101A3C001437BD4680BC704780B586B000AF786067
:101A4C007B68002B01D101236CE27B681B6803F0DF
:101A5C000103002B00F08780924B5B6803F00C03B2
:101A6C00042B0CD08F4B5B6803F00C03082B12D1AA
:101A7C008C4B5B6803F48033B3F5803F0BD1894BFF
:101A8C001B6803F40033002B6CD07B685B68002B65
:101A9C0068D1012346E27B685B68B3F5803F06D1D1
:101AAC00804B1B687F4A43F4803313602EE07B68C5
:101ABC005B68002B0CD17B4B1B687A4A23F4803378
:101ACC001360784B1B68774A23F4802313601DE066
:101ADC007B685B68B3F5A02F0CD1724B1B68714A05
:101AEC0043F4802313606F4B1B686E4A43F48033BE
:101AFC0013600BE06B4B1B686A4A23F48033136052
:101B0C00684B1B68674A23F4802313607B685B680F
:101B1C00002B13D0FFF7B6FC386108E0FFF7B2FCDE
:101B2C0002463B69D31A642B01D90323FAE15D4BBE
:101B3C001B6803F40033002BF0D014E0FFF7A2FC79
:101B4C00386108E0FFF79EFC02463B69D31A642B10
:101B5C0001D90323E6E1534B1B6803F40033002B3C
:101B6C00F0D100E000BF7B681B6803F00203002B80
:101B7C0063D04C4B5B6803F00C03002B0BD0494B30
:101B8C005B6803F00C03082B1CD1464B5B6803F419
:101B9C008033002B16D1434B1B6803F00203002B40
:101BAC0005D07B681B69012B01D00123BAE13D4BA9
:101BBC001B6823F0F8027B685B69DB00394913432F
:101BCC000B603AE07B681B69002B20D0364B01225E
:101BDC001A60FFF757FC386108E0FFF753FC024628
:101BEC003B69D31A022B01D903239BE12D4B1B68B4
:101BFC0003F00203002BF0D02A4B1B6823F0F802F1
:101C0C007B685B69DB00274913430B6015E0264BAF
:101C1C0000221A60FFF736FC386108E0FFF732FC4F
:101C2C0002463B69D31A022B01D903237AE11D4BDF
:101C3C001B6803F00203002BF0D17B681B6803F0D8
:101C4C000803002B3AD07B689B69002B19D0174BEB
:101C5C0001221A60FFF716FC386108E0FFF712FC4E
:101C6C0002463B69D31A022B01D903235AE10D4BCF
:101C7C005B6A03F00203002BF0D0012000F09AFA0B
:101C8C001CE00A4B00221A60FFF7FCFB38610FE0E6
:101C9C00FFF7F8FB02463B69D31A022B08D9032342
:101CAC0040E100BF0010024000004242800442426A
:101CBC009E4B5B6A03F00203002BE9D17B681B6827
:101CCC0003F00403002B00F0A6800023FB75974B58
:101CDC00DB6903F08053002B0DD1944BDB69934AE5
:101CEC0043F08053D361914BDB6903F08053BB60AD
:101CFC00BB680123FB758E4B1B6803F48073002BB0
:101D0C0018D18B4B1B688A4A43F480731360FFF71E
:101D1C00B9FB386108E0FFF7B5FB02463B69D31A03
:101D2C00642B01D90323FDE0814B1B6803F4807302
:101D3C00002BF0D07B68DB68012B06D17B4B1B6A38
:101D4C007A4A43F0010313622DE07B68DB68002BB9
:101D5C000CD1764B1B6A754A23F001031362734B4B
:101D6C001B6A724A23F0040313621CE07B68DB6875
:101D7C00052B0CD16D4B1B6A6C4A43F004031362A8
:101D8C006A4B1B6A694A43F0010313620BE0674B11
:101D9C001B6A664A23F001031362644B1B6A634A95
:101DAC0023F0040313627B68DB68002B15D0FFF76C
:101DBC0069FB38610AE0FFF765FB02463B69D31A01
:101DCC0041F28832934201D90323ABE0574B1B6A93
:101DDC0003F00203002BEED014E0FFF753FB386145
:101DEC000AE0FFF74FFB02463B69D31A41F28832F7
:101DFC00934201D9032395E04C4B1B6A03F0020379
:101E0C00002BEED1FB7D012B05D1484BDB69474AFA
:101E1C0023F08053D3617B68DB69002B00F0818059
:101E2C00424B5B6803F00C03082B61D07B68DB69C9
:101E3C00022B46D13F4B00221A60FFF723FB38617F
:101E4C0008E0FFF71FFB02463B69D31A022B01D9AE
:101E5C00032367E0354B1B6803F00073002BF0D1B4
:101E6C007B681B6AB3F5803F08D1304B5B6823F469
:101E7C0000327B689B682D4913434B602B4B5B688E
:101E8C0023F474127B68196A7B685B6A0B432749DD
:101E9C0013434B60274B01221A60FFF7F3FA3861AA
:101EAC0008E0FFF7EFFA02463B69D31A022B01D97F
:101EBC00032337E01D4B1B6803F00073002BF0D09D
:101ECC002FE01C4B00221A60FFF7DCFA386108E0A7
:101EDC00FFF7D8FA02463B69D31A022B01D9032328
:101EEC0020E0124B1B6803F00073002BF0D118E0BC
:101EFC007B68DB69012B01D1012313E00B4B5B6881
:101F0C00FB60FB6803F480327B681B6A9A4206D143
:101F1C00FB6803F470127B685B6A9A4201D0012360
:101F2C0000E0002318461837BD4680BD0010024063
:101F3C00007000406000424280B584B000AF786011
:101F4C0039607B68002B01D10123D0E06A4B1B6800
:101F5C0003F007033A689A4210D9674B1B6823F0C9
:101F6C00070265493B6813430B60634B1B6803F026
:101F7C0007033A689A4201D00123B8E07B681B68DA
:101F8C0003F00203002B20D07B681B6803F00403D2
:101F9C00002B05D0594B5B68584A43F4E0635360FF
:101FAC007B681B6803F00803002B05D0534B5B6860
:101FBC00524A43F460535360504B5B6823F0F00279
:101FCC007B689B684D4913434B607B681B6803F02F
:101FDC000103002B40D07B685B68012B07D1474B7A
:101FEC001B6803F40033002B15D101237FE07B68C1
:101FFC005B68022B07D1414B1B6803F00073002B6D
:10200C0009D1012373E03D4B1B6803F00203002B45
:10201C0001D101236BE0394B5B6823F003027B6831
:10202C005B68364913434B60FFF72CFAF8600AE003
:10203C00FFF728FA0246FB68D31A41F28832934222
:10204C0001D9032353E02D4B5B6803F00C027B6832
:10205C005B689B009A42EBD1274B1B6803F007038C
:10206C003A689A4210D2244B1B6823F0070222498B
:10207C003B6813430B60204B1B6803F007033A6863
:10208C009A4201D0012332E07B681B6803F0040301
:10209C00002B08D0194B5B6823F4E0627B68DB688B
:1020AC00164913434B607B681B6803F00803002B35
:1020BC0009D0124B5B6823F460527B681B69DB0010
:1020CC000E4913434B6000F021F802460B4B5B6842
:1020DC001B0903F00F030A49CB5C22FA03F3094AEC
:1020EC001360094B1B681846FFF78AF90023184642
:1020FC001037BD4680BD00BF0020024000100240DA
:10210C00242A00080C0000202000002080B487B096
:10211C0000AF0023FB600023BB6000237B61002326
:10212C007B6000233B611E4B5B68FB60FB6803F02C
:10213C000C03042B02D0082B03D027E0194B3B6176
:10214C0027E0FB689B0C03F00F03174AD35C7B6002
:10215C00FB6803F48033002B10D0114B5B685B0CD5
:10216C0003F00103114AD35CBB607B680D4A02FB90
:10217C0003F2BB68B2FBF3F37B6104E07B680C4AAF
:10218C0002FB03F37B617B693B6102E0054B3B6126
:10219C0000BF3B6918461C37BD4680BC704700BF6A
:1021AC000010024000127A00342A0008442A000869
:1021BC0000093D0080B485B000AF78600A4B1B6805
:1021CC000A4AA2FB03235B0A7A6802FB03F3FB6057
:1021DC0000BFFB685A1EFA60002BF9D100BF00BF8C
:1021EC001437BD4680BC70470C000020D34D6210E4
:1021FC0080B582B000AF78607B68002B01D10123E1
:10220C0041E07B6893F83D30DBB2002B06D17B6854
:10221C00002283F83C207868FEF792FE7B6802224D
:10222C0083F83D207B681A687B6804331946104696
:10223C0000F056FA7B68012283F846207B68012265
:10224C0083F83E207B68012283F83F207B680122C3
:10225C0083F840207B68012283F841207B680122AF
:10226C0083F842207B68012283F843207B6801229B
:10227C0083F844207B68012283F845207B68012287
:10228C0083F83D20002318460837BD4680BD00006A
:10229C0080B485B000AF78607B6893F83D30DBB2DA
:1022AC00012B01D0012335E07B68022283F83D200D
:1022BC007B681B68DA687B681B6842F00102DA6095
:1022CC007B681B68164A934209D07B681B68B3F184
:1022DC00804F04D07B681B68124A934211D17B68F3
:1022EC001B689B6803F00703FB60FB68062B10D090
:1022FC007B681B681A687B681B6842F001021A60D5
:10230C0007E07B681B681A687B681B6842F0010257
:10231C001A60002318461437BD4680BC704700BFB6
:10232C00002C01400004004080B584B000AF786000
:10233C007B681B68DB68FB607B681B681B69BB6088
:10234C00BB6803F00203002B20D0FB6803F00203F0
:10235C00002B1BD07B681B686FF002021A617B6834
:10236C0001221A777B681B689B6903F00303002B1F
:10237C0003D0786800F098F905E0786800F08BF9E4
:10238C00786800F09AF97B6800221A77BB6803F032
:10239C000403002B20D0FB6803F00403002B1BD09C
:1023AC007B681B686FF004021A617B6802221A7743
:1023BC007B681B689B6903F44073002B03D078681F
:1023CC0000F072F905E0786800F065F9786800F0C3
:1023DC0074F97B6800221A77BB6803F00803002BA2
:1023EC0020D0FB6803F00803002B1BD07B681B6814
:1023FC006FF008021A617B6804221A777B681B68ED
:10240C00DB6903F00303002B03D0786800F04CF970
:10241C0005E0786800F03FF9786800F04EF97B68C9
:10242C0000221A77BB6803F01003002B20D0FB6846
:10243C0003F01003002B1BD07B681B686FF010029D
:10244C001A617B6808221A777B681B68DB6903F4C6
:10245C004073002B03D0786800F026F905E078680B
:10246C0000F019F9786800F028F97B6800221A77D7
:10247C00BB6803F00103002B0CD0FB6803F00103D5
:10248C00002B07D07B681B686FF001021A6178681B
:10249C00FEF74EFABB6803F08003002B0CD0FB68F0
:1024AC0003F08003002B07D07B681B686FF0800261
:1024BC001A61786800F06FFABB6803F04003002BD8
:1024CC000CD0FB6803F04003002B07D07B681B6823
:1024DC006FF040021A61786800F0F8F8BB6803F0FE
:1024EC002003002B0CD0FB6803F02003002B07D03B
:1024FC007B681B686FF020021A61786800F042FA62
:10250C0000BF1037BD4680BD80B584B000AF786089
:10251C0039600023FB737B6893F83C30012B01D1AD
:10252C000223B4E07B68012283F83C207B68022202
:10253C0083F83D207B681B689B68BB60BB6823F0FD
:10254C007703BB60BB6823F47F43BB607B681B686D
:10255C00BA689A603B681B68B3F5005F3ED0B3F570
:10256C00005F00F28780B3F5805F00F08680B3F5E2
:10257C00805F7FD8702B1AD0702B7BD8602B50D0FB
:10258C00602B77D8502B3CD0502B73D8402B58D085
:10259C00402B6FD8302B64D0302B6BD8202B60D0D5
:1025AC00202B67D8002B5CD0102B5AD062E07B68B4
:1025BC0018683B6899683B685A683B68DB6800F0B0
:1025CC006AF97B681B689B68BB60BB6843F0770348
:1025DC00BB607B681B68BA689A604FE07B681868C0
:1025EC003B6899683B685A683B68DB6800F053F9B4
:1025FC007B681B689A687B681B6842F480429A600F
:10260C003CE07B6818683B6859683B68DB681A4695
:10261C0000F0CAF87B681B685021184600F021F9BD
:10262C002CE07B6818683B6859683B68DB681A4685
:10263C0000F0E8F87B681B686021184600F011F97F
:10264C001CE07B6818683B6859683B68DB681A4675
:10265C0000F0AAF87B681B684021184600F001F9CD
:10266C000CE07B681A683B681B681946104600F042
:10267C00F8F803E00123FB7300E000BF7B68012244
:10268C0083F83D207B68002283F83C20FB7B1846B6
:10269C001037BD4680BD80B483B000AF786000BFFA
:1026AC000C37BD4680BC704780B483B000AF7860F7
:1026BC0000BF0C37BD4680BC704780B483B000AF00
:1026CC00786000BF0C37BD4680BC704780B483B0C7
:1026DC0000AF786000BF0C37BD4680BC704700006F
:1026EC0080B485B000AF786039607B681B68FB6094
:1026FC007B682B4A934207D07B68B3F1804F03D0A1
:10270C007B68284A934208D1FB6823F07003FB6076
:10271C003B685B68FA681343FB607B68204A934212
:10272C0007D07B68B3F1804F03D07B681D4A93427E
:10273C0008D1FB6823F44073FB603B68DB68FA68E4
:10274C001343FB60FB6823F080023B685B69134317
:10275C00FB607B68FA681A603B689A687B68DA628F
:10276C003B681A687B689A627B680D4A934203D176
:10277C003B681A697B681A637B6801225A617B6823
:10278C001B6903F00103002B05D07B681B6923F048
:10279C0001027B681A6100BF1437BD4680BC7047CC
:1027AC00002C01400004004080B487B000AFF860FA
:1027BC00B9607A60FB681B6A7B61FB681B6A23F05B
:1027CC000102FB681A62FB689B693B613B6923F061
:1027DC00F0033B617B681B013A6913433B617B69E6
:1027EC0023F00A037B617A69BB6813437B61FB6846
:1027FC003A699A61FB687A691A6200BF1C37BD4658
:10280C0080BC704780B487B000AFF860B9607A6064
:10281C00FB681B6A7B61FB681B6A23F01002FB6878
:10282C001A62FB689B693B613B6923F470433B6113
:10283C007B681B033A6913433B617B6923F0A0035C
:10284C007B61BB681B017A6913437B61FB683A6946
:10285C009A61FB687A691A6200BF1C37BD4680BC5E
:10286C00704780B485B000AF786039607B689B6836
:10287C00FB60FB6823F07003FB603A68FB68134352
:10288C0043F00703FB607B68FA689A6000BF14375B
:10289C00BD4680BC704780B487B000AFF860B960AB
:1028AC007A603B60FB689B687B617B6923F47F43A8
:1028BC007B613B681A027B681A43BB6813437A69D5
:1028CC0013437B61FB687A699A6000BF1C37BD4675
:1028DC0080BC704780B485B000AF786039607B688D
:1028EC0093F83C30012B01D1022341E07B6801229B
:1028FC0083F83C207B68022283F83D207B681B68B0
:10290C005B68FB607B681B689B68BB60FB6823F0A3
:10291C007003FB603B681B68FA681343FB607B68C1
:10292C001B68FA685A607B681B68144A934209D08A
:10293C007B681B68B3F1804F04D07B681B68104A1E
:10294C0093420CD1BB6823F08003BB603B685B688F
:10295C00BA681343BB607B681B68BA689A607B6873
:10296C00012283F83D207B68002283F83C20002361
:10297C0018461437BD4680BC704700BF002C014080
:10298C000004004080B483B000AF786000BF0C3707
:10299C00BD4680BC704780B483B000AF786000BF88
:1029AC000C37BD4680BC704770B500260C4D0D4CE5
:1029BC00641BA410A64209D100F022F800260A4D8F
:1029CC000A4C641BA410A64205D170BD55F8043BFB
:1029DC0098470136EEE755F8043B98470136F2E785
:1029EC00482A0008482A0008482A00084C2A0008EF
:1029FC0003460244934200D1704703F8011BF9E7E8
:102A0C00F8B500BFF8BC08BC9E467047F8B500BFCF
:082A1C00F8BC08BC9E4670479F
:102A2400000000000000000001020304060708097A
:102A340002030405060708090A0B0C0D0E0F1010FB
:042A4400010200008B
:042A48003101000850
:042A4C000D01000870
:102A500004000800100000000100000000127A00CD
:102A6000050000000200000003000000010000005B
:082A700010000000010000004D
:040000050800139547
:00000001FF
